:100000000C9464000C948C000C948C000C948C0068
:100010000C948C000C948C000C948C000C94400478
:100020000C948C000C948C000C948C000C948C0020
:100030000C948C000C948C000C948C000C948C0010
:100040000C941A050C948C000C94E8040C94C204D3
:100050000C948C000C948C000C948C000C948C00F0
:100060000C948C000C948C000000000024002700ED
:100070002A000000000023002600290000000008DC
:10008000000201000003040700000000000000005F
:10009000010204081020408001020408102001021F
:1000A0000408102000000000250028002B00040494
:1000B0000404040404040202020202020303030310
:1000C0000303020064051C0911241FBECFEFD8E012
:1000D000DEBFCDBF22E0A4E4B1E001C01D92A73194
:1000E000B207E1F711E0A0E0B1E0E0EBFCE102C013
:1000F00005900D92A434B107D9F710E0C3E6D0E023
:1001000004C02197FE010E944A0CC236D107C9F7EC
:100110000E949F050C944B0E0C940000AF92BF926E
:10012000CF92DF92EF92FF920F931F93CF93DF93C3
:100130006C017B018B01040F151FEB015E01AE18F2
:10014000BF08C017D10759F06991D601ED91FC9114
:100150000190F081E02DC6010995892B79F7C50141
:10016000DF91CF911F910F91FF90EF90DF90CF9093
:10017000BF90AF900895FC01538D448D252F30E042
:10018000842F90E0821B930B541710F0CF960895A4
:1001900001970895FC01918D828D981761F0A28DD1
:1001A000AE0FBF2FB11D5D968C91928D9F5F9F7397
:1001B000928F90E008958FEF9FEF0895FC01918D4D
:1001C000828D981731F0828DE80FF11D858D90E0BA
:1001D00008958FEF9FEF0895FC01918D228D892F57
:1001E00090E0805C9F4F821B91098F73992708953F
:1001F00080E791E00E94EC0021E0892B09F420E0E7
:10020000822F089580E090E0892B29F00E94F80069
:1002100081110C9400000895FC01A48DA80FB92F42
:10022000B11DA35ABF4F2C91848D90E001968F731E
:100230009927848FA689B7892C93A089B1898C913D
:10024000837080648C93938D848D981306C002888C
:10025000F389E02D80818F7D80830895EF92FF9256
:100260000F931F93CF93DF93EC0181E0888F9B8DD9
:100270008C8D98131AC0E889F989808185FF15C093
:100280009FB7F894EE89FF896083E889F9898081B6
:100290008370806480839FBF81E090E0DF91CF9185
:1002A0001F910F91FF90EF900895F62E0B8D10E0A7
:1002B0000F5F1F4F0F731127E02E8C8D8E110CC016
:1002C0000FB607FCFACFE889F989808185FFF5CF61
:1002D000CE010E940C01F1CFEB8DEC0FFD2FF11D33
:1002E000E35AFF4FF0829FB7F8940B8FEA89FB899E
:1002F00080818062CFCFCF93DF93EC01888D8823FC
:10030000B9F0AA89BB89E889F9898C9185FD03C078
:10031000808186FD0DC00FB607FCF7CF8C9185FF5D
:10032000F2CF808185FFEDCFCE010E940C01E9CF95
:10033000DF91CF910895833081F028F4813099F0D6
:100340008230A9F008958730A9F08830C9F0843050
:10035000B1F4809180008F7D03C0809180008F7701
:1003600080938000089584B58F7784BD089584B507
:100370008F7DFBCF8091B0008F778093B000089580
:100380008091B0008F7DF9CFCF93DF93282F30E09D
:10039000F901E458FF4F8491F901E057FF4FD491E0
:1003A000F901E255FF4FC491CC23A1F081110E94C5
:1003B0009B01EC2FF0E0EE0FFF1FEE58FF4FA591D1
:1003C000B491EC91ED2381E090E009F480E0DF91BD
:1003D000CF91089580E090E0FACF1F93CF93DF9301
:1003E000282F30E0F901E458FF4F8491F901E057DC
:1003F000FF4FD491F901E255FF4FC491CC23A9F0EE
:10040000162F81110E949B01EC2FF0E0EE0FFF1FD1
:10041000EC55FF4FA591B4918FB7F894EC91111161
:1004200008C0D095DE23DC938FBFDF91CF911F9161
:100430000895DE2BF8CFCF93DF9390E0FC01E057D7
:10044000FF4F249182559F4FFC0184918823D1F066
:1004500090E0880F991FFC01E859FF4FA591B491D6
:10046000FC01EC55FF4FC591D49161110EC09FB7AF
:10047000F8948C91E22FE0958E238C932881E223CF
:10048000E8839FBFDF91CF9108958FB7F894EC91E7
:10049000E22BEC938FBFF6CF3FB7F89480914501E4
:1004A00090914601A0914701B091480126B5A89BC3
:1004B00005C02F3F19F00196A11DB11D3FBFBA2FF6
:1004C000A92F982F8827BC01CD01620F711D811DB6
:1004D000911D42E0660F771F881F991F4A95D1F73B
:1004E00008958F929F92AF92BF92CF92DF92EF9238
:1004F000FF920E944C024B015C018AEFC82ED12C66
:10050000E12CF12C0E944C02681979098A099B0997
:10051000683E734081059105A8F321E0C21AD10815
:10052000E108F10888EE880E83E0981EA11CB11C3A
:10053000C114D104E104F10429F7FF90EF90DF909A
:10054000CF90BF90AF909F908F90089542E050E081
:100550006AE171E080E791E00C948E00CF93DF9325
:10056000FC0101900020E9F73197AF01481B590BBE
:10057000BC0180E791E00E948E00EC010E94A6027F
:100580008C0F9D1FDF91CF910895CF93DF93FC01D6
:10059000448155816081718180E791E00E948E00E5
:1005A000EC010E94A6028C0F9D1FDF91CF91089550
:1005B0000F931F93CF93DF93EC018881998100976C
:1005C00059F02A813B812617370730F081E0DF910F
:1005D000CF911F910F9108958B016F5F7F4F0E9404
:1005E000750D009759F0998388831B830A832C81AA
:1005F0003D81232B59F7FC011082E8CF80E0E7CF43
:10060000EF92FF920F931F93CF93DF9361157105C4
:1006100041F480E0DF91CF911F910F91FF90EF9017
:10062000089541155105B1F07B01EC010C811D814C
:10063000040F151FB8010E94D802882351F32881A6
:1006400039818C819D81B701820F931F0E94440ED6
:100650001D830C8381E0DECFCF93DF93EC01888193
:100660009981009711F00E94EC0C198218821D826A
:100670001C821B821A82DF91CF910895EF92FF9224
:100680000F931F93CF93DF93CDB7DEB728970FB6A5
:10069000F894DEBF0FBECDBF7C01CB014AE08E01D6
:1006A0000F5F1F4FB8010E942009F8010190002040
:1006B000E9F73197AF01401B510BB801C7010E9408
:1006C0000003811103C0C7010E942C03C7012896B3
:1006D0000FB6F894DEBF0FBECDBFDF91CF911F9153
:1006E0000F91FF90EF900895CF93DF93EC01FB0102
:1006F00044815581608171810E940003811103C092
:10070000CE010E942C03CE01DF91CF910895EF928C
:10071000FF920F931F93CF93DF93EC017B018A012C
:10072000BA010E94D80281110BC0CE010E942C0395
:10073000CE01DF91CF911F910F91FF90EF9008951F
:100740001D830C83B701888199810E94440EF0CFEC
:10075000FC01118210821382128215821482FB0125
:1007600001900020E9F73197AF01461B570B0C941D
:100770008703CF93DF93EC01FB018617970749F0BE
:10078000608171816115710541F0448155810E943C
:100790008703CE01DF91CF9108950E942C03F9CFFA
:1007A000FC0180819181009711F00C94EC0C08956C
:1007B0008F929F92AF92BF92CF92DF92EF92FF9271
:1007C0000F931F93CF93DF9300D000D000D0CDB70D
:1007D000DEB78C01CB01BA010E941D0B0E94A60B53
:1007E0004B01CB016CE370E00E94220C7B0124ECF6
:1007F00026036001279FD00C1124C80CD91C6CE182
:1008000071E0C8010E94A8031A8219821C821B820F
:100810001E821D82B801CE0101960E94B903B70164
:10082000CE0101960E943E037C0141E050E06DE163
:1008300071E00E940003811103C0C7010E942C03D4
:10084000B601C7010E943E03BC01C8010E94B90362
:10085000CE0101960E94D003C80126960FB6F894E7
:10086000DEBF0FBECDBFDF91CF911F910F91FF90E3
:10087000EF90DF90CF90BF90AF909F908F900895B2
:100880001F920F920FB60F9211242F933F934F9305
:100890005F936F937F938F939F93AF93BF93EF93E8
:1008A000FF938091560190915701A0915801B0910A
:1008B0005901892B8A2B8B2BD1F190915101E09119
:1008C0005201F091530180818927808380915601E4
:1008D00090915701A0915801B0915901181619062D
:1008E0001A061B069CF48091560190915701A09125
:1008F0005801B09159010197A109B109809356019E
:1009000090935701A0935801B0935901FF91EF9133
:10091000BF91AF919F918F917F916F915F914F9117
:100920003F912F910F900FBE0F901F9018958091BF
:100930000001E2ECF0E0E4919FEF90930001E130E0
:1009400051F030F0E23069F060E00E94ED01DECF5E
:1009500010926E00F9CF90916F009D7F90936F0081
:10096000F3CF909170009D7F9093700091E09093F1
:10097000B0009091B100987F94609093B100109274
:10098000B300E2CF1F920F920FB60F9211242F9354
:100990003F934F935F936F937F938F939F93AF9307
:1009A000BF93EF93FF9380E791E00E940C01FF91CA
:1009B000EF91BF91AF919F918F917F916F915F91D7
:1009C0004F913F912F910F900FBE0F901F90189550
:1009D0001F920F920FB60F9211242F938F939F9314
:1009E000EF93FF93E0918001F09181018081E0918C
:1009F0008601F091870182FD1BC090818091890161
:100A00008F5F8F7320918A01821741F0E0918901F5
:100A1000F0E0E059FE4F958F80938901FF91EF91AF
:100A20009F918F912F910F900FBE0F901F9018954F
:100A30008081F4CF1F920F920FB60F9211242F9343
:100A40003F938F939F93AF93BF9380914901909170
:100A50004A01A0914B01B0914C013091440123E037
:100A6000230F2D3758F50196A11DB11D2093440188
:100A70008093490190934A01A0934B01B0934C019C
:100A80008091450190914601A0914701B0914801A4
:100A90000196A11DB11D8093450190934601A0933D
:100AA0004701B0934801BF91AF919F918F913F91C2
:100AB0002F910F900FBE0F901F90189526E8230FCF
:100AC0000296A11DB11DD2CFE0E7F1E013821282A0
:100AD00088EE93E0A0E0B0E084839583A683B7839B
:100AE0008CE091E09183808385EC90E0958784870A
:100AF00084EC90E09787868780EC90E0918B808BE8
:100B000081EC90E0938B828B82EC90E0958B848BD0
:100B100086EC90E0978B868B118E128E138E148E3E
:100B2000EDE0F2E0118210821382128215821482AB
:100B300050E040E06CE171E0CF010C948703CF936B
:100B4000DF93CDB7DEB768970FB6F894DEBF0FBE60
:100B5000CDBF789484B5826084BD84B5816084BD46
:100B600085B5826085BD85B5816085BD80916E004B
:100B7000816080936E00109281008091810082607C
:100B800080938100809181008160809381008091B9
:100B900080008160809380008091B10084608093A8
:100BA000B1008091B00081608093B00080917A00A4
:100BB000846080937A0080917A00826080937A00CA
:100BC00080917A00816080937A0080917A008068B9
:100BD00080937A001092C100E0918001F091810130
:100BE00082E08083E0917C01F0917D011082E091B0
:100BF0007E01F0917F018FEC808310928801E0915B
:100C00008401F091850186E08083E0918201F0917A
:100C10008301808180618083E0918201F091830172
:100C2000808188608083E0918201F09183018081DE
:100C300080688083E0918201F091830180818F7DC3
:100C4000808360E082E00E941B0260E083E00E94FB
:100C50001B0260E084E00E941B0261E089E00E94C8
:100C60001B0261E08AE00E941B0261E08BE00E94AF
:100C70001B0261E08CE00E941B0244244A94542C25
:100C8000320101E049EB242E40E0342E2FB7F894D6
:100C90006091490170914A0180914B0190914C0102
:100CA0002FBF0E945A0920916C0130916D01409133
:100CB0006E0150916F010E94B00A20E030E04AE7D7
:100CC00054E40E94340B609368017093690180932F
:100CD0006A0190936B012FB7F8946091490170916C
:100CE0004A0180914B0190914C012FBF0E945A09FB
:100CF00060936C0170936D0180936E0190936F010E
:100D000080910101882309F4CCC082E00E94C401D3
:100D10005C0183E00E94C4016C0184E00E94C40174
:100D20007C01AB2809F04DC020E030E040EA50E4FF
:100D3000609168017091690180916A0190916B01E5
:100D40000E94BB0920914D0130914E0140914F010D
:100D5000509150010E94B10A4B015C0120E030E04B
:100D600044E353E40E94550987FD06C0812C912C71
:100D700034E3A32E33E4B32E80924D0190924E01C2
:100D8000A0924F01B0925001B501A401CE0101968D
:100D90000E94D8036FE171E0CE0107960E94A8037C
:100DA000BE016F5F7F4FCE0107960E9474030E94C1
:100DB000C502CE0107960E94D003CE0101960E9483
:100DC000D003CD2809F04BC020E030E040EA50E4E9
:100DD000609168017091690180916A0190916B0145
:100DE0000E94BB099B01AC0160914D0170914E01C5
:100DF00080914F01909150010E94B00A5B016C01FB
:100E000020E030E0A9010E941D0C18161CF0A12C56
:100E1000B12C6501A0924D01B0924E01C0924F01DC
:100E2000D0925001B601A501CE0101960E94D803CF
:100E30006FE171E0CE0107960E94A803BE016F5FCB
:100E40007F4FCE0107960E9474030E94C502CE0117
:100E500007960E94D003CE0101960E94D003EF288E
:100E600001F5109201010093670180914D0190916D
:100E70004E01A0914F01B091500180936301909376
:100E80006401A0936501B093660161E089E00E946E
:100E9000ED0161E08AE00E94ED018EE291E00E94A6
:100EA000AE0280916701882309F43EC120E030E062
:100EB00048EC52E4609168017091690180916A0187
:100EC00090916B010E94BB09609368017093690166
:100ED00080936A0190936B0120E030E040E752E498
:100EE0000E94340B9B01AC0160916301709164011D
:100EF00080916501909166010E94B00AAB01BC012E
:100F0000409363015093640160936501709366019F
:100F1000CE0143960E94D80340914D0150914E015D
:100F200060914F0170915001CE010D960E94D8033F
:100F300064E371E0CE0101960E94A803BE01635FE5
:100F40007F4FCE0101960E9474037C0141E050E086
:100F50006CE371E00E940003811103C0C7010E948D
:100F60002C03BE016D5E7F4FC7010E94740318867B
:100F70001F821A8619861C861B86BC01CE01079625
:100F80000E94B903CE0101960E94D0032B853C85B7
:100F900080911102909112022817390709F0F6C0CA
:100FA0008F81988560910D0270910E02009709F46F
:100FB000E0C06115710539F4232B09F4F2C0FC017E
:100FC000808190E0E1C00E943B0EDEC08F3F09F0BF
:100FD0009FC08BE080930001E2ECF0E014911F3F92
:100FE00009F496C0113021F150F0123009F43EC0DE
:100FF00017FD8EC061E08BE00E941B0203C114BC90
:1010000015BC84B5826084BD85B5816085BDF10164
:101010008491E82FF0E0EE0FFF1FEC55FF4F859114
:101020009491EBE9F0E084918093550110E0E3C0E6
:1010300010928000109281008091810088608093DE
:10104000810080918100816080938100F101849111
:10105000E82FF0E0EE0FFF1FEC55FF4F85919491C4
:10106000EBE9F0E0849180935401C5C01092B00088
:101070001092B1008091B00082608093B0008091A6
:10108000B10081608093B100F1018491E82FF0E01C
:10109000EE0FFF1FEC55FF4F8591949190935301F4
:1010A00080935201EBE9F0E0849180935101A3C059
:1010B00085B5887F846085BD86E787BD40925E01E7
:1010C00050925F01609260017092610180916E00A8
:1010D000826080936E001CC0113009F042C0809184
:1010E0008100887F8160809381008AEB97E79093ED
:1010F00089008093880040925A0150925B0160926F
:101100005C0170925D0180916F00826080936F003E
:1011100060E089E00E94ED0160E08AE00E94ED015C
:101120008EE391E00E94AE0280916201882361F01B
:1011300061E08CE00E94ED010E94710260E08CE0B1
:101140000E94ED010E947102E0E0F0E0EF2B09F453
:101150009DCD0E94F800882309F493CD0E940000E1
:1011600090CD123021F01111D3CF8AEBA6CF8AEBAC
:1011700053C061157105A9F0232B99F0FB01808103
:1011800090E0919581959109892B59F0CE010796B0
:101190000E94C502BE01695F7F4F8DE092E00E9410
:1011A000B903CE0107960E94D003CE010D960E948E
:1011B000D003CE0143960E94D00320E030E0A90185
:1011C0006091630170916401809165019091660165
:1011D0000E94550918160CF4A7CF109267010093CE
:1011E0006201809100018B3009F0F0CEE2ECF0E07A
:1011F000149117FD8DCF61E08BE00E941B0211233B
:1012000009F456CF123009F067CF8091B100887F82
:1012100085608093B1008EEE8093B30040925601BA
:10122000509257016092580170925901809170005C
:101230008260809370006CCF8DE092E00C94D003BC
:10124000BB274A3031F4992322F4BDE29095819571
:101250009F4F0C942C09BB27FB015527AA27880F09
:10126000991FAA1FA41710F0A41B83955051B9F71A
:10127000A05DAA3308F0A95DA193009779F7B11199
:10128000B1931192CB010C944509DC01FC01672F4D
:1012900071917723E1F7329704C07C916D9370834D
:1012A0006291AE17BF07C8F308950E94970908F42A
:1012B00081E00895E89409C097FB3EF490958095ED
:1012C000709561957F4F8F4F9F4F9923A9F0F92F0C
:1012D00096E9BB279395F695879577956795B7958A
:1012E000F111F8CFFAF4BB0F11F460FF1BC06F5F70
:1012F0007F4F8F4F9F4F16C0882311F096E911C082
:10130000772321F09EE8872F762F05C0662371F0A2
:1013100096E8862F70E060E02AF09A95660F771FB6
:10132000881FDAF7880F9695879597F90895990F92
:101330000008550FAA0BE0E8FEEF16161706E8079F
:10134000F907C0F012161306E407F50798F0621BC0
:10135000730B840B950B39F40A2661F0232B242B95
:10136000252B21F408950A2609F4A140A6958FEFB4
:10137000811D811D08950E94CE090C943F0A0E9490
:10138000310A38F00E94380A20F0952311F00C94AD
:10139000280A0C942E0A11240C94730A0E94500AF5
:1013A00070F3959FC1F3950F50E0551F629FF001B8
:1013B000729FBB27F00DB11D639FAA27F00DB11DD1
:1013C000AA1F649F6627B00DA11D661F829F22275A
:1013D000B00DA11D621F739FB00DA11D621F839FE1
:1013E000A00D611D221F749F3327A00D611D231FB7
:1013F000849F600D211D822F762F6A2F11249F5705
:1014000050409AF0F1F088234AF0EE0FFF1FBB1F07
:10141000661F771F881F91505040A9F79E3F5105C6
:1014200080F00C94280A0C94730A5F3FE4F3983E12
:10143000D4F3869577956795B795F795E7959F5F70
:10144000C1F7FE2B880F911D9695879597F9089502
:1014500097F99F6780E870E060E008959FEF80EC67
:10146000089500240A94161617061806090608950A
:1014700000240A9412161306140605060895092E70
:101480000394000C11F4882352F0BB0F40F4BF2BDF
:1014900011F460FF04C06F5F7F4F8F4F9F4F08951F
:1014A00057FD9058440F551F59F05F3F71F0479515
:1014B000880F97FB991F61F09F3F79F087950895FA
:1014C000121613061406551FF2CF4695F1DF08C019
:1014D000161617061806991FF1CF86957105610536
:1014E00008940895E894BB2766277727CB0197F9DE
:1014F00008952F923F924F925F926F927F928F92B8
:101500009F92AF92BF92CF92DF92EF92FF920F9392
:101510001F93CF93DF93CDB7DEB7CA1BDB0B0FB69C
:10152000F894DEBF0FBECDBF09942A883988488859
:101530005F846E847D848C849B84AA84B984C884EF
:10154000DF80EE80FD800C811B81AA81B981CE0FE6
:10155000D11D0FB6F894DEBF0FBECDBFED010895CB
:101560005058BB27AA270E94C80A0C943F0A0E9421
:10157000310A38F00E94380A20F039F49F3F19F4FC
:1015800026F40C942E0A0EF4E095E7FB0C94280A3E
:10159000E92F0E94500A58F3BA17620773078407AD
:1015A000950720F079F4A6F50C94720A0EF4E095F4
:1015B0000B2EBA2FA02D0B01B90190010C01CA010D
:1015C000A0011124FF27591B99F0593F50F4503EB8
:1015D00068F11A16F040A22F232F342F4427585FAA
:1015E000F3CF469537952795A795F0405395C9F7C2
:1015F0007EF41F16BA0B620B730B840BBAF091507A
:10160000A1F0FF0FBB1F661F771F881FC2F70EC018
:10161000BA0F621F731F841F48F4879577956795EB
:10162000B795F7959E3F08F0B0CF9395880F08F0D7
:101630009927EE0F9795879508950E94050C90F0D5
:101640009F3748F4911116F40C94730A60E070E02F
:1016500080E89FE3089526F01B16611D711D811D12
:101660000C94DC0B0C94F70B0E94480B0C943F0A73
:101670000E94380A58F00E94310A40F029F45F3F76
:1016800029F00C94280A51110C94730A0C942E0A18
:101690000E94500A68F39923B1F3552391F3951BE7
:1016A000550BBB27AA2762177307840738F09F5F83
:1016B0005F4F220F331F441FAA1FA9F335D00E2EF0
:1016C0003AF0E0E832D091505040E695001CCAF75D
:1016D0002BD0FE2F29D0660F771F881FBB1F261720
:1016E00037074807AB07B0E809F0BB0B802DBF01F7
:1016F000FF2793585F4F3AF09E3F510578F00C94C6
:10170000280A0C94730A5F3FE4F3983ED4F386955D
:1017100077956795B795F7959F5FC9F7880F911DE6
:101720009695879597F90895E1E0660F771F881FD2
:10173000BB1F621773078407BA0720F0621B730B85
:10174000840BBA0BEE1F88F7E09508950E94AD0B4D
:101750006894B1110C94730A08950E94580A88F095
:101760009F5798F0B92F9927B751B0F0E1F0660F65
:10177000771F881F991F1AF0BA95C9F714C0B130A6
:1017800091F00E94720AB1E008950C94720A672FDA
:10179000782F8827B85F39F0B93FCCF386957795D5
:1017A0006795B395D9F73EF49095809570956195BE
:1017B0007F4F8F4F9F4F0895882371F4772321F037
:1017C0009850872B762F07C0662311F499270DC0F8
:1017D0009051862B70E060E02AF09A95660F771F93
:1017E000881FDAF7880F9695879597F908959F3F98
:1017F00031F0915020F4879577956795B795880FCC
:10180000911D9695879597F908950E94580AA0F022
:10181000BEE7B91788F4BB279F3860F41616B11DD0
:10182000672F782F8827985FF7CF869577956795EC
:10183000B11D93959639C8F308950E94970908F44D
:101840008FEF089597FB072E16F4009407D077FDCD
:1018500009D00E94360C07FC05D03EF49095819586
:101860009F4F0895709561957F4F0895AA1BBB1BEC
:1018700051E107C0AA1FBB1FA617B70710F0A61B90
:10188000B70B881F991F5A95A9F780959095BC01B1
:10189000CD010895EE0FFF1F0590F491E02D0994FE
:1018A0000F931F93CF93DF938230910510F482E062
:1018B00090E0E0911502F091160230E020E0B0E0F7
:1018C000A0E0309799F42115310509F44AC0281B8E
:1018D000390B24303105D8F58A819B81611571055A
:1018E00089F1FB0193838283FE0111C04081518104
:1018F0000281138148175907E0F04817590799F4F6
:10190000109761F012960C93129713961C933296CF
:10191000CF01DF91CF911F910F9108950093150290
:1019200010931602F4CF2115310551F042175307D9
:1019300038F0A901DB019A01BD01DF01F801C1CF37
:10194000EF01F9CF9093160280931502CDCFFE01DF
:10195000E20FF31F81939193225031093983288339
:10196000D7CF2091130230911402232B41F4209100
:101970000401309105013093140220931302209149
:101980000201309103012115310541F42DB73EB715
:101990004091060150910701241B350BE091130281
:1019A000F0911402E217F307A0F42E1B3F0B281747
:1019B000390778F0AC014E5F5F4F2417350748F0C8
:1019C0004E0F5F1F50931402409313028193919323
:1019D0009FCFF0E0E0E09CCFCF93DF930097E9F05A
:1019E000FC01329713821282A0911502B091160267
:1019F000ED0130E020E01097A1F420813181820FC9
:101A0000931F20911302309114022817390709F00F
:101A100061C0F0931402E0931302DF91CF91089517
:101A2000EA01CE17DF07E8F54A815B819E01411587
:101A30005105B1F7E901FB83EA8349915991C40F3C
:101A4000D51FEC17FD0761F4808191810296840F08
:101A5000951FE90199838883828193819B838A837F
:101A6000F0E0E0E012968D919C9113970097B9F504
:101A70002D913C911197CD010296820F931F2091D9
:101A80001302309114022817390739F6309751F5AF
:101A90001092160210921502B0931402A093130232
:101AA000BCCFD383C28340815181840F951FC81757
:101AB000D90761F44E5F5F4F88819981480F591FA4
:101AC000518340838A819B819383828321153105D1
:101AD00009F0B0CFF0931602E09315029ECFFD01FE
:101AE000DC01C0CF13821282D7CFB0E0A0E0EBE7D9
:101AF000FDE00C947B0A8C01009751F4CB010E940D
:101B0000500C8C01C801CDB7DEB7E0E10C94970A08
:101B1000FC01E60FF71F9C0122503109E217F30781
:101B200008F49DC0D901CD91DC911197C617D70754
:101B300098F0C530D10530F3CE010497861797078A
:101B400008F3C61BD70B2297C193D1936D937C9357
:101B5000CF010E94EC0CD6CF5B01AC1ABD0A4C0140
:101B60008C0E9D1EA0911502B0911602512C412C95
:101B7000F12CE12C109731F5809113029091140211
:101B80008815990509F05CC04616570608F058C03C
:101B90008091020190910301009741F48DB79EB7A7
:101BA0004091060150910701841B950BE817F90736
:101BB00008F055C0F0931402E0931302F901718309
:101BC0006083A0CF8D919C91119712966C90129783
:101BD00013967C901397A815B90559F56C0142E04E
:101BE000C40ED11CCA14DB0420F1AC014A195B09F4
:101BF000DA011296159780F06282738251834083D6
:101C0000D9016D937C93E114F10471F0D70113961F
:101C1000FC93EE93129776CF22968C0F9D1FF901BD
:101C200091838083F301EFCFF0931602E0931502C6
:101C300069CF4816590608F42C017D01D3019ACFCB
:101C4000CB010E94500C7C01009749F0AE01B80115
:101C50000E94320EC8010E94EC0C870153CF10E0A5
:101C600000E050CFFB01DC0102C001900D92415019
:101C70005040D8F70895FB01DC018D910190801947
:101C80000110D9F3990B0895FB01DC0101900D922D
:101C90000020E1F7089510E0C3E6D0E004C0FE01A3
:101CA0000E944A0C2196C436D107C9F7F894FFCF99
:101CB000FF01000017028000000000002E018E00CE
:101CC000BB007B01EC00CA00DE000D0A003A0054A4
:101CD000656D706F2073657461646F3A2000726F78
:101CE0006461720054656D706F3A20007C00706111
:041CF00072617200AB
:00000001FF
