:020000040000FA
:100000000C9464000C948C000C948C000C948C0068
:100010000C948C000C948C000C948C000C94270491
:100020000C948C000C948C000C948C000C948C0020
:100030000C948C000C948C000C948C000C948C0010
:100040000C9401050C948C000C94CF040C94A9041E
:100050000C948C000C948C000C948C000C948C00F0
:100060000C948C000C948C000000000024002700ED
:100070002A000000000023002600290000000008DC
:10008000000201000003040700000000000000005F
:10009000010204081020408001020408102001021F
:1000A0000408102000000000250028002B00040494
:1000B0000404040404040202020202020303030310
:1000C000030302004B05FA0811241FBECFEFD8E04E
:1000D000DEBFCDBF22E0A8E3B1E001C01D92AB308E
:1000E000B207E1F711E0A0E0B1E0ECE6FCE102C00C
:1000F00005900D92A833B107D9F710E0C3E6D0E020
:1001000004C02197FE010E94280CC236D107C9F70E
:100110000E9486050C94290E0C940000AF92BF92A9
:10012000CF92DF92EF92FF920F931F93CF93DF93C3
:100130006C017B018B01040F151FEB015E01AE18F2
:10014000BF08C017D10759F06991D601ED91FC9114
:100150000190F081E02DC6010995892B79F7C50141
:10016000DF91CF911F910F91FF90EF90DF90CF9093
:10017000BF90AF900895CF93DF93FC0144815581E8
:100180006081718184E691E00E948E00EC0142E082
:1001900050E06AE171E084E691E00E948E008C0FED
:1001A0009D1FDF91CF910895FC01538D448D252F24
:1001B00030E0842F90E0821B930B541710F0CF9601
:1001C000089501970895FC01918D828D981761F033
:1001D000A28DAE0FBF2FB11D5D968C91928D9F5F4A
:1001E0009F73928F90E008958FEF9FEF0895FC0129
:1001F000918D828D981731F0828DE80FF11D858DDC
:1002000090E008958FEF9FEF0895FC01918D228D6E
:10021000892F90E0805C9F4F821B91098F739927F3
:10022000089584E691E00E94050121E0892B09F4FC
:1002300020E0822F089580E090E0892B29F00E9431
:10024000110181110C9400000895FC01A48DA80FE8
:10025000B92FB11DA35ABF4F2C91848D90E0019608
:100260008F739927848FA689B7892C93A089B18928
:100270008C91837080648C93938D848D981306C0C9
:100280000288F389E02D80818F7D80830895EF922D
:10029000FF920F931F93CF93DF93EC0181E0888F40
:1002A0009B8D8C8D98131AC0E889F989808185FF10
:1002B00015C09FB7F894EE89FF896083E889F989B2
:1002C00080818370806480839FBF81E090E0DF91B4
:1002D000CF911F910F91FF90EF900895F62E0B8D07
:1002E00010E00F5F1F4F0F731127E02E8C8D8E11C2
:1002F0000CC00FB607FCFACFE889F989808185FF29
:10030000F5CFCE010E942501F1CFEB8DEC0FFD2F33
:10031000F11DE35AFF4FF0829FB7F8940B8FEA89E3
:10032000FB8980818062CFCFCF93DF93EC01888DF2
:100330008823B9F0AA89BB89E889F9898C9185FD60
:1003400003C0808186FD0DC00FB607FCF7CF8C91EE
:1003500085FFF2CF808185FFEDCFCE010E94250180
:10036000E9CFDF91CF910895833081F028F4813077
:1003700099F08230A9F008958730A9F08830C9F04B
:100380008430B1F4809180008F7D03C08091800023
:100390008F7780938000089584B58F7784BD08950A
:1003A00084B58F7DFBCF8091B0008F778093B000B4
:1003B00008958091B0008F7DF9CFCF93DF93282FE0
:1003C00030E0F901E458FF4F8491F901E057FF4F05
:1003D000D491F901E255FF4FC491CC23A1F08111D2
:1003E0000E94B401EC2FF0E0EE0FFF1FEE58FF4F1C
:1003F000A591B491EC91ED2381E090E009F480E0C7
:10040000DF91CF91089580E090E0FACF1F93CF93D2
:10041000DF93282F30E0F901E458FF4F8491F90170
:10042000E057FF4FD491F901E255FF4FC491CC231F
:10043000A9F0162F81110E94B401EC2FF0E0EE0F0D
:10044000FF1FEC55FF4FA591B4918FB7F894EC9135
:10045000111108C0D095DE23DC938FBFDF91CF91BF
:100460001F910895DE2BF8CFCF93DF9390E0FC012E
:10047000E057FF4F249182559F4FFC0184918823C0
:10048000D1F090E0880F991FFC01E859FF4FA5912A
:10049000B491FC01EC55FF4FC591D49161110EC090
:1004A0009FB7F8948C91E22FE0958E238C9328814E
:1004B000E223E8839FBFDF91CF9108958FB7F8942F
:1004C000EC91E22BEC938FBFF6CF3FB7F89480917D
:1004D000390190913A01A0913B01B0913C0126B5C0
:1004E000A89B05C02F3F19F00196A11DB11D3FBF6C
:1004F000BA2FA92F982F8827BC01CD01620F711D3B
:10050000811D911D42E0660F771F881F991F4A9534
:10051000D1F708958F929F92AF92BF92CF92DF92C0
:10052000EF92FF920E9465024B015C018AEFC82E98
:10053000D12CE12CF12C0E946502681979098A09F5
:100540009B09683E734081059105A8F321E0C21A1A
:10055000D108E108F10888EE880E83E0981EA11CFE
:10056000B11CC114D104E104F10429F7FF90EF900C
:10057000DF90CF90BF90AF909F908F9008950F9392
:100580001F93CF93DF93EC0188819981009759F0F5
:100590002A813B812617370730F081E0DF91CF9128
:1005A0001F910F9108958B016F5F7F4F0E94530D34
:1005B000009759F0998388831B830A832C813D819E
:1005C000232B59F7FC011082E8CF80E0E7CFEF92B0
:1005D000FF920F931F93CF93DF936115710541F441
:1005E00080E0DF91CF911F910F91FF90EF900895E0
:1005F00041155105B1F07B01EC010C811D81040F07
:10060000151FB8010E94BF02882351F32881398148
:100610008C819D81B701820F931F0E94220E1D8342
:100620000C8381E0DECFCF93DF93EC018881998149
:10063000009711F00E94CA0C198218821D821C8238
:100640001B821A82DF91CF910895EF92FF920F9350
:100650001F93CF93DF93CDB7DEB728970FB6F894EB
:10066000DEBF0FBECDBF7C01CB014AE08E010F5F24
:100670001F4FB8010E94FE08F80101900020E9F721
:100680003197AF01401B510BB801C7010E94E7022F
:10069000811103C0C7010E941303C70128960FB63A
:1006A000F894DEBF0FBECDBFDF91CF911F910F91A8
:1006B000FF90EF900895CF93DF93EC01FB0144810D
:1006C0005581608171810E94E702811103C0CE01D2
:1006D0000E941303CE01DF91CF910895EF92FF9214
:1006E0000F931F93CF93DF93EC017B018A01BA0133
:1006F0000E94BF0281110BC0CE010E941303CE01E4
:10070000DF91CF911F910F91FF90EF9008951D837E
:100710000C83B701888199810E94220EF0CFFC01E1
:10072000118210821382128215821482FB010190C1
:100730000020E9F73197AF01461B570B0C946E036D
:10074000CF93DF93EC01FB018617970749F0608197
:1007500071816115710541F0448155810E946E03DC
:10076000CE01DF91CF9108950E941303F9CFFC01D0
:1007700080819181009711F00C94CA0C08958F929A
:100780009F92AF92BF92CF92DF92EF92FF920F9320
:100790001F93CF93DF9300D000D000D0CDB7DEB74A
:1007A0008C01CB01BA010E94FB0A0E94840B4B0111
:1007B000CB016CE370E00E94000C7B0124EC26036B
:1007C0006001279FD00C1124C80CD91C6CE171E08A
:1007D000C8010E948F031A8219821C821B821E820A
:1007E0001D82B801CE0101960E94A003B701CE017F
:1007F00001960E9425037C0141E050E06DE171E02B
:100800000E94E702811103C0C7010E941303B601D1
:10081000C7010E942503BC01C8010E94A003CE01AC
:1008200001960E94B703C80126960FB6F894DEBF62
:100830000FBECDBFDF91CF911F910F91FF90EF9031
:10084000DF90CF90BF90AF909F908F9008951F92B0
:100850000F920FB60F9211242F933F934F935F93F4
:100860006F937F938F939F93AF93BF93EF93FF9378
:1008700080914A0190914B01A0914C01B0914D01A2
:10088000892B8A2B8B2BD1F190914501E091460168
:10089000F091470180818927808380914A0190915E
:1008A0004B01A0914C01B0914D01181619061A0682
:1008B0001B069CF480914A0190914B01A0914C0140
:1008C000B0914D010197A109B10980934A0190931C
:1008D0004B01A0934C01B0934D01FF91EF91BF915B
:1008E000AF919F918F917F916F915F914F913F91C8
:1008F0002F910F900FBE0F901F90189580910001BF
:10090000E2ECF0E0E4919FEF90930001E13051F0D0
:1009100030F0E23069F060E00E940602DECF109213
:100920006E00F9CF90916F009D7F90936F00F3CF91
:10093000909170009D7F9093700091E09093B00033
:100940009091B100987F94609093B1001092B300A1
:10095000E2CF1F920F920FB60F9211242F933F9365
:100960004F935F936F937F938F939F93AF93BF93B7
:10097000EF93FF9384E691E00E942501FF91EF91B0
:10098000BF91AF919F918F917F916F915F914F91A7
:100990003F912F910F900FBE0F901F9018951F92AF
:1009A0000F920FB60F9211242F938F939F93EF9373
:1009B000FF93E0917401F09175018081E0917A01DB
:1009C000F0917B0182FD1BC0908180917D018F5F42
:1009D0008F7320917E01821741F0E0917D01F0E05C
:1009E000EC59FE4F958F80937D01FF91EF919F9180
:1009F0008F912F910F900FBE0F901F9018958081AF
:100A0000F4CF1F920F920FB60F9211242F933F93A2
:100A10008F939F93AF93BF9380913D0190913E013F
:100A2000A0913F01B09140013091380123E0230FA4
:100A30002D3758F50196A11DB11D209338018093E3
:100A40003D0190933E01A0933F01B09340018091FE
:100A5000390190913A01A0913B01B0913C0101967E
:100A6000A11DB11D8093390190933A01A0933B01E0
:100A7000B0933C01BF91AF919F918F913F912F9186
:100A80000F900FBE0F901F90189526E8230F029627
:100A9000A11DB11DD2CFE4E6F1E01382128288EEEF
:100AA00093E0A0E0B0E084839583A683B7838CE0D5
:100AB00091E09183808385EC90E09587848784EC36
:100AC00090E09787868780EC90E0918B808B81EC1B
:100AD00090E0938B828B82EC90E0958B848B86ECFC
:100AE00090E0978B868B118E128E138E148EE1E020
:100AF000F2E011821082138212821582148250E079
:100B000040E06CE171E0CF010C946E03CF93DF9372
:100B1000CDB7DEB768970FB6F894DEBF0FBECDBF76
:100B2000789484B5826084BD84B5816084BD85B5C8
:100B3000826085BD85B5816085BD80916E008160D4
:100B400080936E001092810080918100826080937A
:100B5000810080918100816080938100809180007C
:100B60008160809380008091B10084608093B100A7
:100B70008091B00081608093B00080917A008460A1
:100B800080937A0080917A00826080937A008091CD
:100B90007A00816080937A0080917A0080688093E7
:100BA0007A001092C100E0917401F091750182E029
:100BB0008083E0917001F09171011082E0917201E7
:100BC000F09173018FEC808310927C01E0917801A9
:100BD000F091790186E08083E0917601F0917701D0
:100BE000808180618083E0917601F091770180813E
:100BF00088608083E0917601F09177018081806840
:100C00008083E0917601F091770180818F7D8083F0
:100C100060E082E00E94340260E083E00E943402DF
:100C200060E084E00E94340261E089E00E943402C6
:100C300061E08AE00E94340261E08BE00E943402AD
:100C400061E08CE00E94340244244A94542C320126
:100C500001E049EB242E40E0342E2FB7F894609148
:100C60003D0170913E0180913F01909140012FBF65
:100C70000E94380920916001309161014091620128
:100C8000509163010E948E0A20E030E04AE754E46C
:100C90000E94120B60935C0170935D0180935E0172
:100CA00090935F012FB7F89460913D0170913E01E0
:100CB00080913F01909140012FBF0E9438096093BD
:100CC0006001709361018093620190936301809150
:100CD0000101882309F4C8C082E00E94DD015C01A3
:100CE00083E00E94DD016C0184E00E94DD017C0153
:100CF000AB2809F04DC020E030E040EA50E46091BC
:100D00005C0170915D0180915E0190915F010E9494
:100D10009909209141013091420140914301509144
:100D200044010E948F0A4B015C0120E030E044E363
:100D300053E40E94330987FD06C0812C912C34E3D3
:100D4000A32E33E4B32E8092410190924201A092EF
:100D50004301B0924401B501A401CE0101960E9465
:100D6000BF036FE171E0CE0107960E948F03BE01C1
:100D70006F5F7F4FCE0107960E945B030E94BB000E
:100D8000CE0107960E94B703CE0101960E94B703D9
:100D9000CD2809F04BC020E030E040EA50E46091FB
:100DA0005C0170915D0180915E0190915F010E94F4
:100DB00099099B01AC0160914101709142018091C0
:100DC0004301909144010E948E0A5B016C0120E076
:100DD00030E0A9010E94FB0B18161CF0A12CB12CCD
:100DE0006501A0924101B0924201C0924301D092AC
:100DF0004401B601A501CE0101960E94BF036FE137
:100E000071E0CE0107960E948F03BE016F5F7F4F96
:100E1000CE0107960E945B030E94BB00CE0107969D
:100E20000E94B703CE0101960E94B703EF28E1F4B8
:100E30001092010100935B01809141019091420168
:100E4000A0914301B09144018093570190935801C0
:100E5000A0935901B0935A0161E089E00E94060213
:100E600061E08AE00E94060280915B01882309F418
:100E700039C120E030E048EC52E460915C017091AF
:100E80005D0180915E0190915F010E9499096093DC
:100E90005C0170935D0180935E0190935F0120E09F
:100EA00030E040E752E40E94120B9B01AC016091DC
:100EB0005701709158018091590190915A010E94F7
:100EC0008E0AAB01BC0140935701509358016093C7
:100ED000590170935A01CE0143960E94BF0340917D
:100EE0004101509142016091430170914401CE0152
:100EF0000D960E94BF036EE271E0CE0101960E9442
:100F00008F03BE01635F7F4FCE0101960E945B039A
:100F10007C0141E050E066E371E00E94E70281114C
:100F200003C0C7010E941303BE016D5E7F4FC7015E
:100F30000E945B0318861F821A8619861C861B86F0
:100F4000BC01CE0107960E94A003CE0101960E942B
:100F5000B7032B853C8580910502909106022817E6
:100F6000390709F0F1C08F81988560910102709175
:100F70000202009709F4DBC06115710539F4232BD7
:100F800009F4EDC0FC01808190E0DCC00E94190EE4
:100F9000D9C08F3F09F09EC08BE080930001E2EC46
:100FA000F0E014911F3F09F495C0113021F150F089
:100FB000123009F43EC017FD8DC061E08BE00E9445
:100FC0003402FEC014BC15BC84B5826084BD85B5F6
:100FD000816085BDF1018491E82FF0E0EE0FFF1FE5
:100FE000EC55FF4F85919491EBE9F0E0849180936B
:100FF000490110E0DEC010928000109281008091C3
:10100000810088608093810080918100816080935D
:101010008100F1018491E82FF0E0EE0FFF1FEC5505
:10102000FF4F85919491EBE9F0E084918093480122
:10103000C0C01092B0001092B1008091B0008260E8
:101040008093B0008091B10081608093B100F10184
:101050008491E82FF0E0EE0FFF1FEC55FF4F8591D4
:1010600094919093470180934601EBE9F0E08491DD
:10107000809345019EC085B5887F846085BD86E7E5
:1010800087BD409252015092530160925401709278
:10109000550180916E00826080936E001BC01130FC
:1010A000F1F580918100887F8160809381008AEBD7
:1010B00097E7909389008093880040924E01509268
:1010C0004F01609250017092510180916F008260D7
:1010D00080936F0060E089E00E94060260E08AE091
:1010E0000E94060280915601882361F061E08CE045
:1010F0000E9406020E948A0260E08CE00E940602C2
:101100000E948A02E0E0F0E0EF2B09F4A6CD0E94F5
:101110001101882309F49CCD0E94000099CD123062
:1011200021F01111D7CF8AEBABCF8AEB53C06115F9
:101130007105A9F0232B99F0FB01808190E0919536
:1011400081959109892B59F0CE0107960E94BB0029
:10115000BE01695F7F4F81E092E00E94A003CE0153
:1011600007960E94B703CE010D960E94B703CE01E9
:1011700043960E94B70320E030E0A9016091570137
:10118000709158018091590190915A010E94330940
:1011900018160CF4A7CF10925B01009356018091B2
:1011A00000018B3009F0F5CEE2ECF0E0149117FD70
:1011B00091CF61E08BE00E943402112309F45BCFF0
:1011C000123009F06CCF8091B100887F85608093E8
:1011D000B1008EEE8093B30040924A0150924B01D1
:1011E00060924C0170924D018091700082608093FA
:1011F000700070CF81E092E00C94B703BB274A30B7
:1012000031F4992322F4BDE2909581959F4F0C947F
:101210000A09BB27FB015527AA27880F991FAA1F78
:10122000A41710F0A41B83955051B9F7A05DAA3301
:1012300008F0A95DA193009779F7B111B1931192CC
:10124000CB010C942309DC01FC01672F71917723FA
:10125000E1F7329704C07C916D9370836291AE1771
:10126000BF07C8F308950E94750908F481E0089546
:10127000E89409C097FB3EF4909580957095619530
:101280007F4F8F4F9F4F9923A9F0F92F96E9BB27E6
:101290009395F695879577956795B795F111F8CF62
:1012A000FAF4BB0F11F460FF1BC06F5F7F4F8F4FCD
:1012B0009F4F16C0882311F096E911C0772321F0C3
:1012C0009EE8872F762F05C0662371F096E8862F5B
:1012D00070E060E02AF09A95660F771F881FDAF7B2
:1012E000880F9695879597F90895990F0008550FDF
:1012F000AA0BE0E8FEEF16161706E807F907C0F09C
:1013000012161306E407F50798F0621B730B840BA3
:10131000950B39F40A2661F0232B242B252B21F47D
:1013200008950A2609F4A140A6958FEF811D811D1D
:1013300008950E94AC090C941D0A0E940F0A38F00F
:101340000E94160A20F0952311F00C94060A0C94C2
:101350000C0A11240C94510A0E942E0A70F3959FD6
:10136000C1F3950F50E0551F629FF001729FBB279C
:10137000F00DB11D639FAA27F00DB11DAA1F649F38
:101380006627B00DA11D661F829F2227B00DA11DEB
:10139000621F739FB00DA11D621F839FA00D611D71
:1013A000221F749F3327A00D611D231F849F600D92
:1013B000211D822F762F6A2F11249F5750409AF0BB
:1013C000F1F088234AF0EE0FFF1FBB1F661F771F47
:1013D000881F91505040A9F79E3F510580F00C9412
:1013E000060A0C94510A5F3FE4F3983ED4F38695C5
:1013F00077956795B795F795E7959F5FC1F7FE2BB2
:10140000880F911D9695879597F9089597F99F678D
:1014100080E870E060E008959FEF80EC089500247C
:101420000A941616170618060906089500240A9449
:1014300012161306140605060895092E0394000CCF
:1014400011F4882352F0BB0F40F4BF2B11F460FF5E
:1014500004C06F5F7F4F8F4F9F4F089557FD905887
:10146000440F551F59F05F3F71F04795880F97FB68
:10147000991F61F09F3F79F0879508951216130622
:101480001406551FF2CF4695F1DF08C01616170651
:101490001806991FF1CF8695710561050894089586
:1014A000E894BB2766277727CB0197F908952F92F9
:1014B0003F924F925F926F927F928F929F92AF92E4
:1014C000BF92CF92DF92EF92FF920F931F93CF9331
:1014D000DF93CDB7DEB7CA1BDB0B0FB6F894DEBFC8
:1014E0000FBECDBF09942A88398848885F846E84EE
:1014F0007D848C849B84AA84B984C884DF80EE8038
:10150000FD800C811B81AA81B981CE0FD11D0FB640
:10151000F894DEBF0FBECDBFED0108955058BB2734
:10152000AA270E94A60A0C941D0A0E940F0A38F0EE
:101530000E94160A20F039F49F3F19F426F40C9407
:101540000C0A0EF4E095E7FB0C94060AE92F0E94C2
:101550002E0A58F3BA17620773078407950720F01D
:1015600079F4A6F50C94500A0EF4E0950B2EBA2FE0
:10157000A02D0B01B90190010C01CA01A001112499
:10158000FF27591B99F0593F50F4503E68F11A1645
:10159000F040A22F232F342F4427585FF3CF4695D6
:1015A00037952795A795F0405395C9F77EF41F16F8
:1015B000BA0B620B730B840BBAF09150A1F0FF0FC2
:1015C000BB1F661F771F881FC2F70EC0BA0F621FAE
:1015D000731F841F48F4879577956795B795F7959E
:1015E0009E3F08F0B0CF9395880F08F09927EE0F33
:1015F0009795879508950E94E30B90F09F3748F4E4
:10160000911116F40C94510A60E070E080E89FE3B9
:10161000089526F01B16611D711D811D0C94BA0BD7
:101620000C94D50B0E94260B0C941D0A0E94160ADE
:1016300058F00E940F0A40F029F45F3F29F00C9403
:10164000060A51110C94510A0C940C0A0E942E0A9D
:1016500068F39923B1F3552391F3951B550BBB27E1
:10166000AA2762177307840738F09F5F5F4F220F26
:10167000331F441FAA1FA9F335D00E2E3AF0E0E81D
:1016800032D091505040E695001CCAF72BD0FE2F67
:1016900029D0660F771F881FBB1F261737074807FB
:1016A000AB07B0E809F0BB0B802DBF01FF279358B3
:1016B0005F4F3AF09E3F510578F00C94060A0C9467
:1016C000510A5F3FE4F3983ED4F38695779567958A
:1016D000B795F7959F5FC9F7880F911D96958795E8
:1016E00097F90895E1E0660F771F881FBB1F621707
:1016F00073078407BA0720F0621B730B840BBA0BC5
:10170000EE1F88F7E09508950E948B0B6894B11145
:101710000C94510A08950E94360A88F09F5798F059
:10172000B92F9927B751B0F0E1F0660F771F881FE6
:10173000991F1AF0BA95C9F714C0B13091F00E9400
:10174000500AB1E008950C94500A672F782F88272B
:10175000B85F39F0B93FCCF3869577956795B39527
:10176000D9F73EF490958095709561957F4F8F4F96
:101770009F4F0895882371F4772321F09850872B89
:10178000762F07C0662311F499270DC09051862B40
:1017900070E060E02AF09A95660F771F881FDAF7ED
:1017A000880F9695879597F908959F3F31F091504E
:1017B00020F4879577956795B795880F911D969535
:1017C000879597F908950E94360AA0F0BEE7B917E9
:1017D00088F4BB279F3860F41616B11D672F782F49
:1017E0008827985FF7CF869577956795B11D939574
:1017F0009639C8F308950E94750908F48FEF08958B
:1018000097FB072E16F4009407D077FD09D00E94AD
:10181000140C07FC05D03EF4909581959F4F0895D8
:10182000709561957F4F0895AA1BBB1B51E107C0BE
:10183000AA1FBB1FA617B70710F0A61BB70B881F60
:10184000991F5A95A9F780959095BC01CD010895EF
:10185000EE0FFF1F0590F491E02D09940F931F9355
:10186000CF93DF938230910510F482E090E0E09115
:101870000902F0910A0230E020E0B0E0A0E03097E9
:1018800099F42115310509F44AC0281B390B24307D
:101890003105D8F58A819B816115710589F1FB01BC
:1018A00093838283FE0111C04081518102811381A3
:1018B00048175907E0F04817590799F4109761F055
:1018C00012960C93129713961C933296CF01DF91C8
:1018D000CF911F910F9108950093090210930A026E
:1018E000F4CF2115310551F04217530738F0A90103
:1018F000DB019A01BD01DF01F801C1CFEF01F9CF92
:1019000090930A0280930902CDCFFE01E20FF31FEC
:10191000819391932250310939832883D7CF209125
:10192000070230910802232B41F4209104013091E9
:1019300005013093080220930702209102013091A3
:1019400003012115310541F42DB73EB74091060141
:1019500050910701241B350BE0910702F09108021A
:10196000E217F307A0F42E1B3F0B2817390778F076
:10197000AC014E5F5F4F2417350748F04E0F5F1FD5
:101980005093080240930702819391939FCFF0E018
:10199000E0E09CCFCF93DF930097E9F0FC01329712
:1019A00013821282A0910902B0910A02ED0130E087
:1019B00020E01097A1F420813181820F931F2091A4
:1019C0000702309108022817390709F061C0F09327
:1019D0000802E0930702DF91CF910895EA01CE1744
:1019E000DF07E8F54A815B819E0141155105B1F79A
:1019F000E901FB83EA8349915991C40FD51FEC1784
:101A0000FD0761F4808191810296840F951FE901A1
:101A100099838883828193819B838A83F0E0E0E0CD
:101A200012968D919C9113970097B9F52D913C9149
:101A30001197CD010296820F931F209107023091DA
:101A400008022817390739F6309751F510920A0223
:101A500010920902B0930802A0930702BCCFD3836F
:101A6000C28340815181840F951FC817D90761F443
:101A70004E5F5F4F88819981480F591F5183408382
:101A80008A819B81938382832115310509F0B0CF30
:101A9000F0930A02E09309029ECFFD01DC01C0CF62
:101AA00013821282D7CFB0E0A0E0E9E5FDE00C940C
:101AB000590A8C01009751F4CB010E942E0C8C0125
:101AC000C801CDB7DEB7E0E10C94750AFC01E60F62
:101AD000F71F9C0122503109E217F30708F49DC05B
:101AE000D901CD91DC911197C617D70798F0C53071
:101AF000D10530F3CE0104978617970708F3C61B6C
:101B0000D70B2297C193D1936D937C93CF010E9401
:101B1000CA0CD6CF5B01AC1ABD0A4C018C0E9D1EBF
:101B2000A0910902B0910A02512C412CF12CE12C18
:101B3000109731F580910702909108028815990558
:101B400009F05CC04616570608F058C080910201A3
:101B500090910301009741F48DB79EB74091060123
:101B600050910701841B950BE817F90708F055C041
:101B7000F0930802E0930702F90171836083A0CF1C
:101B80008D919C91119712966C90129713967C9060
:101B90001397A815B90559F56C0142E0C40ED11C84
:101BA000CA14DB0420F1AC014A195B09DA01129670
:101BB000159780F06282738251834083D9016D93BF
:101BC0007C93E114F10471F0D7011396FC93EE932A
:101BD000129776CF22968C0F9D1FF90191838083F7
:101BE000F301EFCFF0930A02E093090269CF4816A0
:101BF000590608F42C017D01D3019ACFCB010E9434
:101C00002E0C7C01009749F0AE01B8010E94100E25
:101C1000C8010E94CA0C870153CF10E000E050CFEA
:101C2000FB01DC0102C001900D9241505040D8F7F9
:101C30000895FB01DC018D91019080190110D9F309
:101C4000990B0895FB01DC0101900D920020E1F752
:101C5000089510E0C3E6D0E004C0FE010E94280C05
:101C60002196C436D107C9F7F894FFCFFF010000D1
:101C70000B0280000000000047018E00D400940198
:101C80000501E300F7000D0A003A0054656D706F1E
:101C90002073657461646F3A200054656D706F3A0B
:041CA00020007C00A4
:107E0000112484B714BE81FFF0D085E080938100F7
:107E100082E08093C00088E18093C10086E0809377
:107E2000C20080E18093C4008EE0C9D0259A86E02C
:107E300020E33CEF91E0309385002093840096BBD3
:107E4000B09BFECF1D9AA8958150A9F7CC24DD24C4
:107E500088248394B5E0AB2EA1E19A2EF3E0BF2EE7
:107E6000A2D0813461F49FD0082FAFD0023811F036
:107E7000013811F484E001C083E08DD089C08234E0
:107E800011F484E103C0853419F485E0A6D080C0E4
:107E9000853579F488D0E82EFF2485D0082F10E0AE
:107EA000102F00270E291F29000F111F8ED06801E7
:107EB0006FC0863521F484E090D080E0DECF843638
:107EC00009F040C070D06FD0082F6DD080E0C81688
:107ED00080E7D80618F4F601B7BEE895C0E0D1E017
:107EE00062D089930C17E1F7F0E0CF16F0E7DF06D8
:107EF00018F0F601B7BEE89568D007B600FCFDCFD4
:107F0000A601A0E0B1E02C9130E011968C91119780
:107F100090E0982F8827822B932B1296FA010C0160
:107F200087BEE89511244E5F5F4FF1E0A038BF0790
:107F300051F7F601A7BEE89507B600FCFDCF97BE46
:107F4000E89526C08437B1F42ED02DD0F82E2BD052
:107F50003CD0F601EF2C8F010F5F1F4F84911BD097
:107F6000EA94F801C1F70894C11CD11CFA94CF0C13
:107F7000D11C0EC0853739F428D08EE10CD085E9AC
:107F80000AD08FE07ACF813511F488E018D01DD067
:107F900080E101D065CF982F8091C00085FFFCCF94
:107FA0009093C60008958091C00087FFFCCF809118
:107FB000C00084FD01C0A8958091C6000895E0E648
:107FC000F0E098E1908380830895EDDF803219F02E
:107FD00088E0F5DFFFCF84E1DECF1F93182FE3DFCA
:107FE0001150E9F7F2DF1F91089580E0E8DFEE27F6
:047FF000FF270994CA
:027FFE00040479
:00000001FF
